{
  "contractName": "SatToken",
  "abi": [
    {
      "constant": true,
      "inputs": [],
      "name": "name",
      "outputs": [
        {
          "name": "",
          "type": "string"
        }
      ],
      "payable": false,
      "stateMutability": "view",
      "type": "function"
    },
    {
      "constant": false,
      "inputs": [
        {
          "name": "_spender",
          "type": "address"
        },
        {
          "name": "_value",
          "type": "uint256"
        }
      ],
      "name": "approve",
      "outputs": [
        {
          "name": "success",
          "type": "bool"
        }
      ],
      "payable": false,
      "stateMutability": "nonpayable",
      "type": "function"
    },
    {
      "constant": true,
      "inputs": [],
      "name": "getBalance",
      "outputs": [
        {
          "name": "",
          "type": "uint256"
        }
      ],
      "payable": false,
      "stateMutability": "view",
      "type": "function"
    },
    {
      "constant": true,
      "inputs": [],
      "name": "totalSupply",
      "outputs": [
        {
          "name": "",
          "type": "uint256"
        }
      ],
      "payable": false,
      "stateMutability": "pure",
      "type": "function"
    },
    {
      "constant": false,
      "inputs": [
        {
          "name": "_from",
          "type": "address"
        },
        {
          "name": "_to",
          "type": "address"
        },
        {
          "name": "_value",
          "type": "uint256"
        }
      ],
      "name": "transferFrom",
      "outputs": [
        {
          "name": "success",
          "type": "bool"
        }
      ],
      "payable": false,
      "stateMutability": "nonpayable",
      "type": "function"
    },
    {
      "constant": true,
      "inputs": [],
      "name": "decimals",
      "outputs": [
        {
          "name": "",
          "type": "uint8"
        }
      ],
      "payable": false,
      "stateMutability": "view",
      "type": "function"
    },
    {
      "constant": true,
      "inputs": [
        {
          "name": "_owner",
          "type": "address"
        }
      ],
      "name": "balanceOf",
      "outputs": [
        {
          "name": "balance",
          "type": "uint256"
        }
      ],
      "payable": false,
      "stateMutability": "view",
      "type": "function"
    },
    {
      "constant": true,
      "inputs": [],
      "name": "symbol",
      "outputs": [
        {
          "name": "",
          "type": "string"
        }
      ],
      "payable": false,
      "stateMutability": "view",
      "type": "function"
    },
    {
      "constant": true,
      "inputs": [],
      "name": "totalMinted",
      "outputs": [
        {
          "name": "",
          "type": "uint256"
        }
      ],
      "payable": false,
      "stateMutability": "view",
      "type": "function"
    },
    {
      "constant": false,
      "inputs": [
        {
          "name": "_to",
          "type": "address"
        },
        {
          "name": "_value",
          "type": "uint256"
        }
      ],
      "name": "transfer",
      "outputs": [
        {
          "name": "success",
          "type": "bool"
        }
      ],
      "payable": false,
      "stateMutability": "nonpayable",
      "type": "function"
    },
    {
      "constant": true,
      "inputs": [
        {
          "name": "_owner",
          "type": "address"
        },
        {
          "name": "_spender",
          "type": "address"
        }
      ],
      "name": "allowance",
      "outputs": [
        {
          "name": "remaining",
          "type": "uint256"
        }
      ],
      "payable": false,
      "stateMutability": "view",
      "type": "function"
    },
    {
      "inputs": [
        {
          "name": "_name",
          "type": "string"
        },
        {
          "name": "_description",
          "type": "string"
        },
        {
          "name": "_version",
          "type": "uint256"
        }
      ],
      "payable": false,
      "stateMutability": "nonpayable",
      "type": "constructor"
    },
    {
      "payable": true,
      "stateMutability": "payable",
      "type": "fallback"
    },
    {
      "anonymous": false,
      "inputs": [
        {
          "indexed": true,
          "name": "_from",
          "type": "address"
        },
        {
          "indexed": true,
          "name": "_to",
          "type": "address"
        },
        {
          "indexed": false,
          "name": "_value",
          "type": "uint256"
        }
      ],
      "name": "TransferEvent",
      "type": "event"
    },
    {
      "anonymous": false,
      "inputs": [
        {
          "indexed": true,
          "name": "_owner",
          "type": "address"
        },
        {
          "indexed": true,
          "name": "_spender",
          "type": "address"
        },
        {
          "indexed": false,
          "name": "_value",
          "type": "uint256"
        }
      ],
      "name": "ApprovalEvent",
      "type": "event"
    },
    {
      "constant": false,
      "inputs": [
        {
          "name": "_user",
          "type": "address"
        }
      ],
      "name": "initUser",
      "outputs": [],
      "payable": false,
      "stateMutability": "nonpayable",
      "type": "function"
    },
    {
      "constant": false,
      "inputs": [],
      "name": "sendSatTokens",
      "outputs": [
        {
          "name": "",
          "type": "bool"
        }
      ],
      "payable": true,
      "stateMutability": "payable",
      "type": "function"
    }
  ],
  "bytecode": "0x60806040526008805460ff1916905534801561001a57600080fd5b50604051610768380380610768833981016040908152815160208084015192840151918401805190949390930192610058916005919086019061007a565b506006819055815161007190600790602085019061007a565b50505050610115565b828054600181600116156101000203166002900490600052602060002090601f016020900481019282601f106100bb57805160ff19168380011785556100e8565b828001600101855582156100e8579182015b828111156100e85782518255916020019190600101906100cd565b506100f49291506100f8565b5090565b61011291905b808211156100f457600081556001016100fe565b90565b610644806101246000396000f3006080604052600436106100c45763ffffffff7c010000000000000000000000000000000000000000000000000000000060003504166306fdde0381146100f3578063095ea7b31461017d57806312065fe0146101b557806318160ddd146101dc57806323a78eb5146101f157806323b872dd14610214578063313ce5671461023e57806370a0823114610269578063744cfc0f1461028a57806395d89b4114610292578063a2309ff8146102a7578063a9059cbb146102bc578063dd62ed3e146102e0575b60405133903480156108fc02916000818181858888f193505050501580156100f0573d6000803e3d6000fd5b50005b3480156100ff57600080fd5b50610108610307565b6040805160208082528351818301528351919283929083019185019080838360005b8381101561014257818101518382015260200161012a565b50505050905090810190601f16801561016f5780820380516001836020036101000a031916815260200191505b509250505060405180910390f35b34801561018957600080fd5b506101a1600160a060020a036004351660243561033e565b604080519115158252519081900360200190f35b3480156101c157600080fd5b506101ca6103a5565b60408051918252519081900360200190f35b3480156101e857600080fd5b506101ca6103ae565b3480156101fd57600080fd5b50610212600160a060020a03600435166103b9565b005b34801561022057600080fd5b506101a1600160a060020a03600435811690602435166044356103e0565b34801561024a57600080fd5b506102536104fa565b6040805160ff9092168252519081900360200190f35b34801561027557600080fd5b506101ca600160a060020a03600435166104ff565b6101a161051a565b34801561029e57600080fd5b5061010861055e565b3480156102b357600080fd5b506101ca610595565b3480156102c857600080fd5b506101a1600160a060020a036004351660243561059b565b3480156102ec57600080fd5b506101ca600160a060020a03600435811690602435166105ed565b60408051808201909152601781527f53706c7974204175746f6e6f6d6f757320546f6b656e73000000000000000000602082015281565b336000818152600260209081526040808320600160a060020a038716808552908352818420869055815186815291519394909390927f08245b82180b1f5e514e503c113ab0197093b2cb542145037c0a31b54b1d998e928290030190a35060015b92915050565b308031905b5090565b653a800f2381505b90565b600160a060020a03166000908152600460205260408120630c380d40908190558154019055565b600160a060020a038084166000908152600260209081526040808320938616835292905290812054849084908490811015806104265750600154600160a060020a031633145b156104f057600160a060020a0387166000908152600360209081526040808320338452909152902054879060ff1615156104ee57600160a060020a03881660009081526004602052604090205486116104e957600160a060020a03808916600081815260046020908152604080832080548c90039055938b168083529184902080548b01905583518a8152935191937feaf1c4b3ce0f4f62a2bae7eb3e68225c75f7e6ff4422073b7437b9a78d25f170929081900390910190a3600194506104ee565b600094505b505b5050509392505050565b600481565b600160a060020a031660009081526004602052604090205490565b60085460009060ff16151560011415610532576103b6565b60405133903480156108fc02916000818181858888f193505050501580156103aa573d6000803e3d6000fd5b60408051808201909152600381527f5341540000000000000000000000000000000000000000000000000000000000602082015281565b60005481565b3360009081526004602052604081205482116105e457503360009081526004602052604080822080548490039055600160a060020a03841682529020805482019055600161039f565b50600092915050565b600160a060020a039182166000908152600260209081526040808320939094168252919091522054905600a165627a7a72305820e1efd1d917d7d1195995d9f86a7cc2ea1b7019ed07ad751561da4d1fdd19e56b0029",
  "source": "pragma solidity ^0.4.24;\n\nimport './ERC20.sol';\nimport './SafeMath.sol';\n\ncontract SatToken is ERC20 {\n    string name;\n    uint version;\n    string description;\n    bool enablePayableFunc = false;\n    \n    constructor (string _name, string _description, uint _version) public {\n        name = _name;\n        version = _version;\n        description = _description;\n    }\n    \n    //TODO: Put splyt related $$ transfer logic here\n    \n    // Temperory give each user 20500 tokens for free\n    function initUser(address _user) public {\n        user[_user] = 205000000;\n        totalMinted += 205000000;\n    }\n    \n    // This function will trade your ether with sat tokens for you.\n    // the only way to attain sat tokens\n    function sendSatTokens() public payable returns(bool) {\n        if(enablePayableFunc == true) {\n            // we are accepting ether in return for tokens\n            \n        } else {\n            // we are NOT accepting ether at this time\n            // give the ether back to sender\n            msg.sender.transfer(msg.value);\n        }\n    }\n    \n    // If someone sends ether to this contract, without specifing a function, it'll end up here\n    // in that case send their ether back to them.\n    function() public payable {\n        msg.sender.transfer(msg.value);\n    }\n    \n}\n\n",
  "sourcePath": "/Users/scott/git/splytprotocol/contracts/SatToken.sol",
  "compiler": {
    "name": "solc",
    "version": "0.4.24+commit.e67f0147.Emscripten.clang"
  },
  "schemaVersion": "2.0.1",
  "updatedAt": "2018-09-07T18:41:18.212Z"
}